:20C00000B240805A2001F2D32200C2432100F2D32A00C2432900F2D31A00C2431900F2D04A
:20C0200041002200F2C22200F2D22700F2D22100D2D32100F2F0BF002100F2D22400F2D2C3
:20C040002500C243230032D0D800304131400004B01280C00C43B01200C01C43B0127AC0A5
:20C06000F2B223000524F2E041002100F2C22300001332D01000FD3F03430343FF3F034354
:04C080001C433041EC
:02FFDE00FFFF23
:02FFE00072C0ED
:02FFE40060C0FB
:02FFE60072C0E7
:02FFEA0072C0E3
:02FFEC0072C0E1
:02FFEE0072C0DF
:02FFF00072C0DD
:02FFF20072C0DB
:02FFF40072C0D9
:02FFF60072C0D7
:02FFF80072C0D5
:02FFFA0072C0D3
:02FFFC0072C0D1
:02FFFE004CC0F5
:00000001FF
